:020000040800F2
:1000000000000220E9140008CD140008CF140008F5
:10001000D1140008D3140008D51400080000000013
:10002000000000000000000000000000D7140008DD
:10003000D914000800000000DB140008DD140008DB
:100040003915000839150008391500083915000858
:100050003915000839150008391500083915000848
:100060003915000839150008391500083915000838
:100070003915000839150008391500083915000828
:100080003915000839150008391500083915000818
:100090003915000839150008391500083915000808
:1000A00039150008391500083915000839150008F8
:1000B00039150008391500083915000839150008E8
:1000C00039150008391500083915000839150008D8
:1000D00039150008391500083915000839150008C8
:1000E00039150008391500083915000839150008B8
:1000F00039150008391500083915000839150008A8
:100100003915000839150008391500083915000897
:100110003915000839150008391500083915000887
:100120003915000839150008391500083915000877
:100130003915000839150008391500083915000867
:100140003915000839150008391500083915000857
:100150003915000839150008391500083915000847
:100160003915000839150008391500083915000837
:10017000391500083915000839150008000000007D
:080180003915000839150008CB
:1001880053B94AB9002908BF00281CBF4FF0FF31F6
:100198004FF0FF3000F00CB8ADF1080C6DE904CE5B
:1001A80001F02CFBDDF804E0DDE9022304B0704720
:1001B800704700BF0348044B834202D0034B03B18E
:1001C80018477047100000201000002000000000B1
:1001D8000548064B1B1AD90F01EBA301491002D0A1
:1001E800034B03B11847704710000020100000208F
:1001F8000000000010B5064C237843B9FFF7DAFF7A
:10020800044B13B10448AFF300800123237010BDE1
:100218001000002000000000841C000808B5054BF1
:100228001BB105490548AFF30080BDE80840FFF75A
:10023800CFBF00BF0000000014000020841C00088D
:1002480010B504460E4B1A784FF47A73B3FBF2F3E9
:100258000C4A1068B0FBF3F000F0AEF868B90F2C48
:1002680001D901200AE0002221464FF0FF3000F0BA
:1002780093F8054B1C60002000E0012010BD00BF72
:1002880000000020080000200400002008B50B4BE7
:100298001A6842F400721A601A6842F480621A609E
:1002A8001A6842F480721A60032000F063F80F2085
:1002B800FFF7C6FF01F0EAF8002008BD003C024045
:1002C800034A1168034B1B780B441360704700BF47
:1002D8002C00002000000020014B1868704700BF68
:1002E8002C00002038B50446FFF7F6FF0546B4F1A8
:1002F800FF3F02D0044B1B781C44FFF7EDFF401B67
:10030800A042FAD338BD00BF00000020002808DB57
:100318000901C9B200F1604000F5614080F800139E
:10032800704700F00F000901C9B2014B195470471A
:1003380014ED00E000B500F00700C0F1070CBCF1B7
:10034800040F28BF4FF0040C031D062B0FD9C31E42
:100358004FF0FF3E0EFA0CF021EA000199400EFA28
:1003680003FE22EA0E0241EA02005DF804FB0023C4
:10037800EEE70000074AD36823F4E0631B041B0C74
:10038800000200F4E060034343F0BF6343F400332A
:10039800D360704700ED00E010B50446054BD868FF
:1003A800C0F30220FFF7C6FF01462046FFF7AEFF65
:1003B80010BD00BF00ED00E00138B0F1807F0BD226
:1003C8004FF0E0235861054AF02182F823100020FD
:1003D800986107221A6170470120704700ED00E01C
:1003E80000230F2B00F2EC8030B583B068E08568FD
:1003F8004FEA430E032404FA0EF425EA0405CC68F8
:1004080004FA0EF42C438460446824EA02044A681F
:10041800C2F300129A40224342605FE0DC080834CD
:1004280050F8242003F00705AD004FF00F0E0EFA28
:1004380005FE22EA0E0E0A69AA4042EA0E0240F8B8
:1004480024205FE0072200E0002202FA0EF22A438D
:1004580002345C4D45F824205B4A94686FEA0C022C
:1004680024EA0C05D1F804E01EF4801F01D04CEA00
:100478000405554CA560E46802EA0405D1F804E0D7
:100488001EF4001F01D04CEA04054F4CE560646877
:1004980002EA0405D1F804E01EF4003F01D04CEA5A
:1004A8000405494C6560246822404D6815F4803F76
:1004B80001D04CEA0402444C226001330F2B7DD852
:1004C80001229A400C6804EA020C32EA0404F4D1CE
:1004D8004C6804F00304013C012C88D94A6802F0F6
:1004E8000302032A09D0C4685D000322AA4024EA53
:1004F80002048A68AA402243C2604A6802F00302E2
:10050800022A8BD004684FEA430E032202FA0EF245
:1005180024EA02044A6802F0030202FA0EF22243B5
:1005280002604A6812F4403FC7D000220192274A6D
:10053800546C44F480445464526C02F48042019236
:10054800019A9C08A51C1F4A52F8255003F0030E77
:100558004FEA8E0E0F2202FA0EF225EA02051C4A15
:1005680090423FF471AF02F5806290421AD002F5D2
:100578008062904218D002F58062904216D002F54F
:100588008062904214D002F58062904212D002F547
:100598008062904210D002F5806290423FF452AFE0
:1005A800082252E7012250E702224EE703224CE7D5
:1005B80004224AE7052248E7062246E703B030BD91
:1005C800704700BF00380140003C0140003802403D
:1005D800000002400AB181617047090481617047D7
:1005E80003685A6912F4806F01D1002070476FF4D4
:1005F80080625A6100230363202280F83D2080F83E
:100608003E30026C42F00402026480F83C30012063
:1006180070472DE9F04106460C46174698463BE0E0
:10062800FFF75AFE069BC01A404502D8B8F1000FE2
:1006380032D1012D18D033689B6924EA03039BB299
:10064800B3FA83F35B099F4226D100233363202248
:1006580086F83D2086F83E30326C42F02002326443
:1006680086F83C30012027E033685B6924EA0303FD
:100678009BB2B3FA83F35B09E5E733685B6924EA65
:10068800030C1FFA8CFCBCFA8CFC4FEA5C1C674517
:1006980011D1B8F1FF3FC3D1C4F30745012DECD008
:1006A80033689B6924EA030C1FFA8CFCBCFA8CFCA7
:1006B8004FEA5C1CEBE70020BDE8F0812DE9F84328
:1006C80005460E469046994653E01A6842F4007271
:1006D8001A602B686FF480625A6100232B63202212
:1006E80085F83D2085F83E302A6C42F004022A64E1
:1006F80085F83C3001204AE0FFF7EEFDA0EB090049
:10070800404502D8B8F1000F33D1012F17D02B681C
:100718009B6926EA03039BB2003B18BF012343B33E
:1007280000232B63202285F83D2085F83E302A6C73
:1007380042F020022A6485F83C30012027E02B682B
:100748005B6926EA03039BB2003B18BF0123E6E777
:100758002B689C6926EA0404A4B2003C18BF012453
:10076800A4B12B685A6912F4806FAED1B8F1FF3F7B
:10077800C2D1C6F30747012FEAD12B685C6926EA84
:100788000404A4B2003C18BF0124E9E70020BDE836
:10079800F8830000F0B583B004460D4616461F46A0
:1007A800C36A082B0DD0012B0BD013F5803F08D05E
:1007B800036B122B0AD10268136843F48073136029
:1007C80004E02268136843F480731360009733468B
:1007D80000224FF001112046FFF71BFF80B9236963
:1007E800B3F5804F16D1236805F0FE051D613B4621
:1007F800324613492046FFF761FFF8B903B0F0BD50
:1008080023681B6813F4807F02D04FF400732364BD
:100818000320F3E7EB11226803F0060343F0F0032B
:1008280013613B46324607492046FFF747FF18B990
:100838002368EDB21D61DAE70120DFE70120DDE77B
:10084800020001000800010070B504460D46164676
:1008580023685B6913F0800F21D12046FFF7C0FEA3
:10086800F8B9B5F1FF3FF3D0FFF736FD801BA8427A
:1008780001D8002DECD123685B6913F0800FE7D114
:1008880000232363202284F83D2084F83E30226C24
:1008980042F02002226484F83C30012000E000206D
:1008A80070BD0120FCE770B504460D461646236866
:1008B8005B6913F0040F21D12046FFF791FEF8B9C8
:1008C800B5F1FF3FF3D0FFF707FD801BA84201D821
:1008D800002DECD123685B6913F0040FE7D10023E6
:1008E8002363202284F83D2084F83E30226C42F0B5
:1008F8002002226484F83C30012000E0002070BD12
:100908000120FCE7002800F0CC8070B5044690F880
:100918003D30002B77D0242384F83D3022681368BB
:1009280023F0010313602268136843F40043136043
:100938002268136823F40043136000F083FC6268A4
:100948005A4B9A4264D85A4B98428CBF00230123D1
:10095800002B40F0A8805749A1FB00318B0C25687B
:100968006A6822F03F0242EA91426A6021680A6A94
:1009780022F03F0266684D4DAE424FD80133134313
:100988000B622168CA6922F44F4222F0FF026568AF
:10099800464B9D424CD8431E6D00B3FBF5F3013323
:1009A80040F6FC70034278D0C3F30B031A43CA61C4
:1009B80021680B6823F0C003E269206A02431343ED
:1009C8000B6021688B6823F4034323F0FF0322693B
:1009D800E068024313438B602168CB6823F0FF0370
:1009E8006269A06902431343CB602268136843F02D
:1009F8000103136000202064202384F83D30206325
:100A080084F83E0070BD80F83C3000F089FC82E735
:100A1800294B98428CBF0023012399E74FF4967520
:100A280005FB03F3254DA5FB03539B090133A6E7FB
:100A3800A668BEB9431E05EB450CB3FBFCF30133B6
:100A4800C3F30B03B3FA83F35B0943BBC6B9431E75
:100A580005EB4505B3FBF5F30133C3F30B0343F48F
:100A68000043A3E7431E05EB850C0CEB8C0CB3FB92
:100A7800FCF30133C3F30B03B3FA83F35B09E4E735
:100A8800431E05EB850505EB8505B3FBF5F301333F
:100A9800C3F30B0343F4404388E7042386E70123A9
:100AA80084E7012070470120ACE700BFA086010061
:100AB8007F841E0083DE1B43FF083D00D34D621078
:100AC8002DE9F04385B004460F46914698460C9EA2
:100AD800FFF702FC054694F83D00C0B2202804D078
:100AE8000227384605B0BDE8F08300951923012296
:100AF8004F492046FFF78DFD002840F0928094F87A
:100B08003C30012B00F08F80012384F83C302368AF
:100B18001A6812F0010F03D11A6842F001021A6034
:100B28002268136823F400631360212384F83D309E
:100B3800102384F83E3000232364C4F82490A4F8DA
:100B48002A80638D23853B4BE3622B463246394628
:100B58002046FFF71FFE0746002866D100230393AF
:100B680023685A6903929B690393039B11E0236CE2
:100B7800042B01D00127B4E72268136843F40073FB
:100B88001360F7E72A4631462046FFF78CFE002817
:100B98002ED1238D002B36D02A4631462046FFF72A
:100BA80053FE0028E3D1626A236812781A61606AEA
:100BB800431C6362618D89B2013989B26185238DD5
:100BC800013B9BB223852268516911F0040FD9D0EB
:100BD800002BD7D043781361636A01336362638D56
:100BE8009BB2013B9BB26385238D013B2385C9E7FB
:100BF800236C042B01D0012773E72268136843F4A0
:100C080000731360F7E72268136843F400731360F6
:100C1800202384F83D30002384F83E3084F83C30AB
:100C28005FE702275DE702275BE7012759E700BF77
:100C3800020010000000FFFF002800F0E08170B5FE
:100C480082B00446036813F0010F3BD09F4B9B68AA
:100C580003F00C03042B2CD09C4B9B6803F00C0373
:100C6800082B21D06368B3F5803F4FD0B3F5A02F90
:100C780052D0964B1A6822F480321A601A6822F40D
:100C880080221A606368002B50D0FFF725FB0546C9
:100C98008E4B1B6813F4003F14D1FFF71DFB401B5C
:100CA8006428F5D90320B1E1884B5B6813F4800F01
:100CB800D8D0864B1B6813F4003F03D06368002B21
:100CC80000F09F81236813F0020F54D07F4B9B687C
:100CD80013F00C0F3ED07D4B9B6803F00C03082BE0
:100CE80033D0E368002B68D0794B01221A60FFF7F4
:100CF800F3FA0546754B1B6813F0020F54D1FFF742
:100D0800EBFA401B0228F5D903207FE16F4A1368EC
:100D180043F480331360B5E76C4B1A6842F48022C1
:100D28001A601A6842F480321A60ABE7FFF7D4FA07
:100D38000546664B1B6813F4003FC3D0FFF7CCFA97
:100D4800401B6428F5D9032060E1604B5B6813F40D
:100D5800800FC6D15D4B1B6813F0020F03D0E36808
:100D6800012B40F05081594A136823F0F803216998
:100D780043EAC1031360236813F0080F42D0636984
:100D88006BB3534B0122C3F8802EFFF7A5FA054633
:100D98004E4B5B6F13F0020F34D1FFF79DFA401BE7
:100DA8000228F5D9032031E1484A136823F0F803F3
:100DB800216943EAC1031360DDE7454B00221A604D
:100DC800FFF78AFA0546414B1B6813F0020FD2D091
:100DD800FFF782FA401B0228F5D9032016E13C4BA5
:100DE8000022C3F8802EFFF777FA0546374B5B6F72
:100DF80013F0020F06D0FFF76FFA401B0228F5D94F
:100E0800032003E1236813F0040F77D02F4B1B6CEA
:100E180013F0805F33D1002301932C4B1A6C42F0FE
:100E280080521A641B6C03F080530193019B0125C7
:100E3800284B1B6813F4807F23D0A368012B34D080
:100E4800052B38D0214B1A6F22F001021A671A6F4E
:100E580022F004021A67A368002B3DD0FFF73CFA82
:100E680006461A4B1B6F13F0020F46D1FFF734FAF0
:100E7800801B41F288339842F3D90320C6E000254D
:100E8800D6E7144A136843F480731360FFF724FA13
:100E98000646104B1B6813F4807FCED1FFF71CFA6F
:100EA800801B0228F5D90320B0E0084A136F43F0ED
:100EB80001031367CFE7054B1A6F42F004021A6764
:100EC8001A6F42F001021A67C5E700BF00380240F6
:100ED8000000474200700040FFF7FEF90646524BFB
:100EE8001B6F13F0020F08D0FFF7F6F9801B41F2D1
:100EF80088339842F3D9032088E0EDB9A369002B21
:100F080000F08380484A926802F00C02082A51D007
:100F1800022B17D0454B00221A66FFF7DDF904466D
:100F2800414B1B6813F0007F42D0FFF7D5F9001B37
:100F38000228F5D9032069E03B4A136C23F080535B
:100F48001364DBE7394B00221A66FFF7C5F905463B
:100F5800354B1B6813F0007F06D0FFF7BDF9401B27
:100F68000228F5D9032051E0E369226A1343626A33
:100F780043EA8213A26A5208013A43EA0243E26A48
:100F880043EA0263284A5360284B01221A66FFF796
:100F9800A3F90446244B1B6813F0007F06D1FFF722
:100FA8009BF9001B0228F5D903202FE000202DE033
:100FB80000202BE0012B2BD01B4B5B6803F4800136
:100FC800E269914226D103F03F02216A8A4223D185
:100FD800616A47F6C0721A40B2EB811F1ED103F452
:100FE8004031A26A5208013AB1EB024F18D103F01E
:100FF8007063E26AB3EB026F14D1002006E00120AF
:101008007047012002E0012000E0002002B070BD1E
:101018000120FBE70120F9E70120F7E70120F5E7C8
:101028000120F3E70120F1E70038024000004742C1
:1010380008B5264B9B6803F00C03042B41D0082B02
:1010480041D1224B5A6802F03F025B6813F4800FCB
:1010580012D01E4B5968C1F388111D480023A1FB0B
:101068000001FFF78DF8194B5B68C3F301430133A7
:101078005B00B0FBF3F027E0144B5868C0F388100E
:101088004FEA401CBCEB000C6EEB0E0E4FEA8E13C1
:1010980043EA9C634FEA8C11B1EB0C0163EB0E033E
:1010A800DB0043EA5173C90011EB000C43F1000364
:1010B800990200234FEA8C2041EA9C51FFF760F81F
:1010C800D1E7034800E0034808BD00BF00380240EC
:1010D800001BB7000024F400002800F09B8070B5C6
:1010E8000D4604464F4B1B6803F007038B4208D29A
:1010F800CBB24C4A1370136803F007038B4240F0DD
:101108008B80236813F0020F17D013F0040F04D05C
:10111800454A936843F4E0539360236813F0080F3B
:1011280004D0414A936843F4604393603E4A93680D
:1011380023F0F003A1680B439360236813F0010FB9
:1011480032D06368012B21D09A1E012A25D9364A4C
:10115800126812F0020F61D033498A6822F0030244
:1011680013438B60FFF7B8F806462F4B9B6803F0D4
:101178000C036268B3EB820F16D0FFF7ADF8801B43
:1011880041F288339842F0D9032042E0264A126897
:1011980012F4003FE0D101203BE0234A126812F02C
:1011A800007FD9D1012034E01E4B1B6803F00703F0
:1011B800AB4207D9EAB21B4B1A701B6803F007034E
:1011C800AB422DD1236813F0040F06D0164A93685A
:1011D80023F4E053E1680B439360236813F0080F8E
:1011E80007D0114A936823F46043216943EAC10395
:1011F8009360FFF71DFF0C4B9B68C3F303130B4A67
:10120800D35CD8400A4B18600A4B1868FFF718F8E7
:10121800002070BD012070470120FAE70120F8E79F
:101228000120F6E7003C024000380240A41C0008F8
:101238000800002004000020014B1868704700BF18
:101248000800002008B5FFF7F7FF044B9B68C3F3BD
:101258008223034AD35CD84008BD00BF003802404F
:101268009C1C000830B589B00024039404940594AC
:10127800069407940094194B1A6B42F001021A6302
:101288001A6B02F001020092009A01941A6B42F064
:1012980020021A631A6B02F020020192019A02944A
:1012A8001A6B42F080021A631B6B03F080030293EF
:1012B800029B0B4D22464FF4E0512846FFF78AF96E
:1012C8004FF4E0530393012304930594069403A970
:1012D8002846FFF785F809B030BD00BF0038024046
:1012E800001C024008B50B480B4B03600B4B4360D6
:1012F80000238360C3604FF48042026143618361CD
:10130800C3610362FFF7FEFA00B908BD00F040F8B8
:10131800FBE700BF3000002000580040801A06009C
:1013280030B589B00023039304930593069307937C
:101338000268144B9A4201D009B030BD00250195CE
:10134800114C236B43F020032363236B03F020032A
:101358000193019B03230393122204920122059215
:1013680006930423079303A90848FFF739F8029561
:10137800236C43F480032364236C03F480030293F7
:10138800029BD9E700580040003802400014024090
:1013980072B6FEE700B595B03022002108A800F02B
:1013A8008BFB002303930493059306930793019300
:1013B800204A116C41F080511164126C02F0805285
:1013C8000192019A02931C4B1A6842F480421A60F7
:1013D8001B6803F480430293029B012308934FF494
:1013E8008033099302230E934FF480020F92062252
:1013F8001092A822119212930423139308A8FFF7BE
:101408001BFC98B90F23039302230493002305932D
:101418004FF4A05306934FF480530793052103A874
:10142800FFF75AFE20B915B05DF804FBFFF7B0FFCF
:10143800FFF7AEFF003802400070004008B5FEF725
:1014480025FFFFF7A7FFFFF70DFFFFF74BFF00F0A2
:101458008BF80D4C00224FF480512046FFF7BAF864
:1014680001224FF400612046FFF7B4F801224FF43F
:1014780080612046FFF7AEF800F086F94FF4FA7065
:10148800FEF730FFE5E700BF001C024082B00021F4
:1014980000910B4B5A6C42F480425A645A6C02F425
:1014A80080420092009A01911A6C42F080521A64AC
:1014B8001B6C03F080530193019B02B0704700BF7F
:1014C80000380240FEE7FEE7FEE7FEE7FEE770476A
:1014D8007047704708B5FEF7F3FE08BD7047000077
:1014E800DFF834D0FFF7FAFF0C480D490D4A002306
:1014F80002E0D458C4500433C4188C42F9D30A4AC1
:101508000A4C002301E013600432A242FBD300F02E
:1015180025FBFFF793FF7047000002200000002022
:1015280010000020C820000810000020200600201D
:10153800FEE7000000B583B071B9094B00221A70AC
:10154800074A50700A230093022378210548FFF7C1
:10155800B7FA03B05DF804FB014B40221A70EFE7BD
:10156800840000203000002008B50021AE20FFF7DD
:10157800E1FF00212020FFF7DDFF00211020FFF709
:10158800D9FF0021B020FFF7D5FF0021C820FFF7C1
:10159800D1FF00210846FFF7CDFF00211020FFF7FB
:1015A800C9FF00214020FFF7C5FF00218120FFF778
:1015B800C1FF0021FF20FFF7BDFF0021A120FFF799
:1015C800B9FF0021A620FFF7B5FF0021A820FFF7EB
:1015D800B1FF00213F20FFF7ADFF0021A420FFF756
:1015E800A9FF0021D320FFF7A5FF00210846FFF738
:1015F800A1FF0021D520FFF79DFF0021F020FFF774
:1016080099FF0021D920FFF795FF00212220FFF73D
:1016180091FF0021DA20FFF78DFF00211220FFF74C
:1016280089FF0021DB20FFF785FF00212020FFF73D
:1016380081FF00218D20FFF77DFF00211420FFF797
:1016480079FF0021AF20FFF775FF08BD0246002093
:1016580022E0144901EBC3014FF0FF0C01F800C070
:101668000133DBB213F0800F14D1012AF1D03AB95B
:101678000C4901EBC3014FF0000C01F800C0EFE783
:10168800084901EBC30111F800C06FEA0C0C01F81E
:1016980000C0E5E70130C0B2072801D80023E1E720
:1016A800704700BF8800002010B50446A1F1500023
:1016B8000021C0B2FFF73EFF2009002140F01000D2
:1016C800FFF738FF002104F00F00FFF733FF10BDCC
:1016D800002822DB002920DB3F291EDC0B460029DD
:1016E8001CDBC3F3C703D1F1000C01F007010CF0B8
:1016F800070C58BFCCF10001C9B2012A10D0022A48
:1017080019D0124A02EBC00010F803C001228A4027
:10171800D24352B20CEA0202C2547047CB1DE0E732
:101728000A4A02EBC002D05C4FF0010C0CFA01F13E
:101738000143D1547047054A02EBC002D05C4FF018
:10174800010C0CFA01F14140D15470478800002087
:1017580038B500250DE00B4B03EBC4030121585DA0
:10176800FFF7E8FE0134E4B214F0800FF3D001353E
:10177800EDB2072D05D829460020FFF795FF002474
:10178800F2E738BD880000202DE9F0410020FFF77E
:101798005DFF002726E03919002249B23046FFF7DD
:1017A80097FF6D00EDB20134E4B2072C09D815F0AB
:1017B800800FF0D03919012249B23046FFF788FF6F
:1017C800EFE708F101085FFA88F84FFA88F6002E6B
:1017D80006DBFB08084A02EBC802D55C0024E4E7F4
:1017E8000837FFB23F2F02D84FF00008EDE7FFF7A8
:1017F800AFFFBDE8F08100BFB41C00082DE9F04739
:10180800089D0C46002B4ED194468C458646B2FA6C
:1018180082F262D94AB1C2F12003914020FA03F35F
:101828000CFA02FC194300FA02FE4FEA1C471FFAA1
:101838008CF6B1FBF7F44FEA1E4307FB141143EA99
:10184800014304FB06F199420AD91CEB030304F196
:10185800FF3080F01281994240F20F81023C6344CC
:10186800591A1FFA8EF3B1FBF7F007FB101143EA80
:10187800014300FB06F69E420AD91CEB030300F164
:10188800FF3180F0FC809E4240F2F98063440238C8
:101898009B1B40EA044000211DB1D3400022C5E94A
:1018A8000032BDE8F0878B4205D90DB1C5E90001CA
:1018B80000210846F5E7B3FA83F1002946D1A3428F
:1018C80002D39042C0F0F080861A64EB0303012033
:1018D800002DE6D0C5E90063E3E7002A40F09080D8
:1018E800A1EB0C044FEA1C481FFA8CF70121B4FB4A
:1018F800F8F64FEA1E4308FB164443EA044307FB85
:1019080006F0984208D91CEB030306F1FF3402D213
:10191800984200F2CD8026461C1A1FFA8EF3B4FBBB
:10192800F8F008FB104443EA044300FB07F79F4222
:1019380008D91CEB030300F1FF3402D29F4200F2E6
:10194800B0802046DB1B40EA0640A5E7C1F120062F
:101958008B4022FA06F71F4320FA06FC04FA01F32B
:1019680043EA0C03F44000FA01F8380C4FEA134933
:10197800B4FBF0FE1FFA87FC00FB1E4449EA04444E
:101988000EFB0CF9A14502FA01F20AD93C190EF135
:10199800FF3A80F08480A14540F28180AEF1020ECA
:1019A8003C44A4EB09041FFA83F9B4FBF0F300FBF1
:1019B800134449EA044403FB0CFCA44507D93C1929
:1019C80003F1FF3067D2A44565D9023B3C4443EAA2
:1019D8000E40A0FB0293A4EB0C049C42CE469C460E
:1019E80051D34ED055B1B8EB0E0364EB0C0404FA96
:1019F80006F6CB401E43CC40C5E90064002150E701
:101A0800C2F1200320FA03F10CFA02FC24FA03F3D2
:101A180094400C434FEA1C4800FA02FE1FFA8CF768
:101A2800B3FBF8F008FB1031230C43EA014300FB39
:101A380007F1994208D91CEB030300F1FF362CD2B9
:101A480099422AD9023863445B1AA4B2B3FBF8F16D
:101A580008FB113344EA034401FB07F3A34208D906
:101A68001CEB040401F1FF3613D2A34211D9023949
:101A78006444E41A41EA004139E70446F0E60846BE
:101A880006E7C845AED2B9EB020E63EB070C013886
:101A9800A8E73146EDE7034699E73046D4E7D6464E
:101AA8007FE7634402384DE70646234608460FE7BA
:101AB800023E634430E700BF830730B547D0541E69
:101AC800002A3ED0CAB2034601E0013C39D303F8EC
:101AD800012B9D07F9D1032C2CD9CDB205EB052597
:101AE8000F2C05EB054535D9A4F1100222F00F0C97
:101AF80003F1100EE6444FEA121C1A4615605560B1
:101B08009560D56010327245F8D10CF1010214F0DD
:101B18000C0F03EB021204F00F0C13D0ACF104030A
:101B280023F003030433134442F8045B9A42FBD1C5
:101B38000CF003042CB1C9B21C4403F8011B9C42ED
:101B4800FBD130BD64461346002CF4D1F9E70346B7
:101B58001446C0E71A46A446E0E700BF70B50F4B2D
:101B68000F4DAB42A3EB050607D0B610002455F87D
:101B7800043B01349847A642F9D800F07FF8094D94
:101B8800094B5E1BAB424FEAA60606D0002455F867
:101B9800043B01349847A642F9D870BDBC20000820
:101BA800BC200008BC200008C4200008704700BF03
:101BB800704700BF024B13B1024800F005B87047E8
:101BC80000000000DD1B0008002301461A461846E5
:101BD80000F014B838B5074D074C2C1BA41005D0DD
:101BE800013C55F8043D9847002CF9D1BDE8384030
:101BF80000F04AB8C8200008C42000082DE9F843BE
:101C08001B4D0646286898460F469146FFF7CEFFBB
:101C1800184B1C681CB3286865681F2D22DC4EB958
:101C28006B1C0235636044F82570FFF7C1FF002084
:101C3800BDE8F88304EB85010123C1F88890D4F846
:101C48008821AB401A43022EC4F88821C1F80881C4
:101C5800E6D1D4F88C211A43C4F88C21E0E7064C6D
:101C68001C60D8E7FFF7A4FF4FF0FF30E0E700BFA4
:101C78000C0000208C04002090040020F8B500BF60
:101C8800F8BC08BC9E467047F8B500BFF8BC08BC55
:041C98009E467047AD
:101C9C00000000000102030400000000000000002E
:101CAC000102030406070809000000000000000000
:101CBC000000000000000000000000000000000018
:101CCC000000000000000000000000000000000008
:101CDC0000000000000000000000000000000000F8
:101CEC0000000000000000000000000000000006E2
:101CFC00000000000000001E00000000000000DEDC
:101D0C0000000000000000D800000000000000D817
:101D1C0000000000000000D800000000000000DE01
:101D2C0000000000000000FE00000000000000F6B3
:101D3C000000000000000072000000000000000025
:101D4C00000000000000007C00000000000000FE0D
:101D5C0000000000000000C600000000000000C6EB
:101D6C0000000000000000C600000000000000FEA3
:101D7C00000000000000007C0000000000000000DB
:101D8C00000000000000001E00000000000000DE4B
:101D9C0000000000000000D600000000000000D68B
:101DAC0000000000000000D600000000000000D67B
:101DBC0000000000000000DE40000000000000FEFB
:101DCC00600000000010006C70000000003000008B
:101DDC007800000000F0007C7C00000007F000FEA2
:101DEC007E0000003FF000C67F000001FFF000C63F
:101DFC007F80000FFFF000C67FC0007FFFF000FE69
:101E0C007FE003FFFFF0007C7FF03FFFFFF000025C
:101E1C007FF83FFFFFF000067FFC3FFFFFF0001E46
:101E2C007FFE3FFFFFF000BC7FFF3FFFFFF000E0B5
:101E3C007FFFBFFFFF8000F87FFFFFFFFC00003E2D
:101E4C007FFFFFFFE000000E7FFFFFFF000000B8E8
:101E5C007FFFFFF8000000E07FFFFFF0000000FEB6
:101E6C007FFFFFF00000001E7FFFFFF0000000026C
:101E7C007FFFFFF0000000007FEFFFF00200000684
:101E8C007FE7FFF00200000E7FE3FFF00200001C72
:101E9C007FE1FFF8030000BA7FE0FFFC030000F6CF
:101EAC007FE07FFE038000E67FE03FFF038000F6CB
:101EBC007FE03FFF83C0003E7FE03FFFC3C0000ECA
:101ECC007FE03FFFE3E000027FE03FFFF3E0000034
:101EDC007FE03FFFFBF000027FE03FFFFFF000667A
:101EEC007FE03FFFFFF800F67FE03FFFFFF800D6F2
:101EFC007FE03FFFFFFC00D67FF07FFFFFFC00D6AA
:101F0C007FF8FFF7FFFE00D67FFFFFF3FFFE00DE3A
:101F1C003FFFFFE1FFFF008C3FFFFFE0FFCF0040E2
:101F2C001FFFFFC07FC780C01FFFFFC03FC380C023
:101F3C000FFFFF801FC1C0FE07FFFF000FC0C0FED8
:101F4C0003FFFE0007C060C001FFFC0003C020C0FF
:101F5C00007FF00001C00086000F800000C000165A
:101F6C0000000000004000D600000000000000D679
:101F7C0000000000000000D600000000000000D6A9
:101F8C0000000000000000D600000000000000D09F
:101F9C0000000000000000C000000000000000066F
:101FAC00000000000000001E00000000000000DE29
:101FBC0000000000000000D800000000000000D865
:101FCC0000000000000000D800000000000000DE4F
:101FDC0000000000000000DE00000000000000F621
:101FEC000000000000000072000000000000000073
:101FFC00000000000000006200000000000000F67D
:10200C0000000000000000F600000000000000D6F8
:10201C0000000000000000D600000000000000D608
:10202C0000000000000000DE000000000000008C3A
:10203C000000000000000000000000000000000094
:10204C000000000000000000000000000000000084
:10205C000000000000000000000000000000000074
:10206C000000000000000000000000000000000064
:10207C000000000000000000000000000000000054
:10208C000000000000000000000000000000000044
:10209C000000000000000000000000000000000034
:0820AC0000000000000000002C
:0820B40050F7FF7F010000005E
:0820BC00BD1B0008250200080D
:0420C400FD01000812
:1020C80001000000100000000024F4008804002033
:04000005080014E9F2
:00000001FF
